:100000000C942A000C9447000C9447000C94470071
:100010000C9447000C9447000C94B9020C944700D0
:100020000C9447000C9447000C9447000C94160362
:100030000C9447000C9447000C9447000C94470024
:100040000C9447000C9447000C9447000C94470014
:100050000C94470011241FBECFE5D8E0DEBFCDBF12
:1000600010E0A0E6B0E0EAE2F7E002C005900D92F1
:10007000AA36B107D9F720E0AAE6B0E001C01D9288
:10008000AD37B207E1F70E9469010C9493030C9419
:1000900000001F93CF93DF9300D000D01F92CDB705
:1000A000DEB75A836B837C838D83142F6A817B81B7
:1000B00041E0812F0E9425026C817D8140E0812FEB
:1000C0000E9425020F900F900F900F900F90DF91DC
:1000D000CF911F9108951F93CF93DF9300D000D04D
:1000E0001F92CDB7DEB75A836B837C838D83142F29
:1000F0006A817B8140E0812F0E9425026C817D8195
:1001000041E0812F0E9425020F900F900F900F90D9
:100110000F90DF91CF911F9108951F93CF93DF939D
:1001200000D000D01F92CDB7DEB75A836B837C839B
:100130008D83142F6A817B8140E0812F0E942502EC
:100140006C817D8140E0812F0E9425020F900F90ED
:100150000F900F900F90DF91CF911F91089582E043
:100160000E943A0386E00E94430308952FE1829F94
:10017000C00111246AE570E00E9449038EE3860FF6
:100180000E9447030895962F672F41E0782F892F0B
:100190000E94AE010E949A020895CF93DF93C72F69
:1001A000D82F40E0672F782F8C2F0E94250245E042
:1001B0004A95F1F7000041E06C2F7D2F8C2F0E94B3
:1001C00025025AE15A95F1F700C040E06C2F7D2FCF
:1001D0008C2F0E94250281E00E94A5022CEF35E8B9
:1001E000AC01429FC001439F900D529F900D11247E
:1001F000BC0180E090E020E034E244EF50E00E9457
:100200005D03822FDF91CF91089540916500509159
:1002100066006091670070916800809169000E949B
:1002200049004091600050916100609162007091BE
:100230006300809164000E94490008954091650028
:10024000509166006091670070916800809169002C
:100250000E946B00409160005091610060916200CB
:1002600070916300809164000E944900089540915C
:100270006500509166006091670070916800809100
:1002800069000E94490040916000509161006091B6
:10029000620070916300809164000E946B00089579
:1002A0004091650050916600609167007091680010
:1002B000809169000E948D00409160005091610022
:1002C0006091620070916300809164000E948D00D3
:1002D0000895FF920F931F93CF93DF93F12C00E0CB
:1002E00010E00E94AF0060E070E080E00E94C30078
:1002F0008AE50E94B6006F2D702F812F0E94CD00DD
:10030000863018F00E940501F6CF0E94500180E06F
:100310000E94B600C0E0D0E00BC08C2F0E94B60057
:100320006F2D702F812F0E94CD00863068F42196AA
:10033000C43BD10594F3CB35D10518F40E941E01BE
:10034000DACF0E943701D7CF8AE50E94B600CE01EE
:10035000DF91CF911F910F91FF900895813019F196
:1003600030F08230E1F1833009F454C00895411136
:100370000CC02AB381E090E002C0880F991F6A95F3
:10038000E2F7809582238ABB0895413009F05CC072
:100390002AB381E090E002C0880F991F6A95E2F7C6
:1003A000822B8ABB089541110CC027B381E090E0F5
:1003B00002C0880F991F6A95E2F78095822387BB58
:1003C0000895413009F040C027B381E090E002C0B9
:1003D000880F991F6A95E2F7822B87BB0895411118
:1003E0000CC024B381E090E002C0880F991F6A9589
:1003F000E2F78095822384BB0895413029F524B328
:1004000081E090E002C0880F991F6A95E2F7822B85
:1004100084BB089541110CC021B381E090E002C07B
:10042000880F991F6A95E2F78095822381BB089512
:10043000413051F421B381E090E002C0880F991F50
:100440006A95E2F7822B81BB0895813011F130F07B
:100450008230D1F1833009F452C00895413059F40B
:100460002BB381E090E002C0880F991F6A95E2F7F4
:10047000822B8BBB089541115CC02BB381E090E0CF
:1004800002C0880F991F6A95E2F7809582238BBB83
:100490000895413059F428B381E090E002C0880FFC
:1004A000991F6A95E2F7822B88BB0895411141C0DC
:1004B00028B381E090E002C0880F991F6A95E2F7A7
:1004C0008095822388BB0895413059F425B381E09B
:1004D00090E002C0880F991F6A95E2F7822B85BBD6
:1004E0000895411126C025B381E090E002C0880F35
:1004F000991F6A95E2F78095822385BB0895413064
:1005000059F422B381E090E002C0880F991F6A95E8
:10051000E2F7822B82BB089541110BC022B381E028
:1005200090E002C0880F991F6A95E2F780958223B8
:1005300082BB089581B38F7B81BB8EB581608EBDF8
:1005400089B7806289BF78940895813021F48EB58F
:1005500080648EBD05C0811103C08EB58F7B8EBDBA
:10056000EDE6F0E08281938120813181821B930B43
:1005700008951F920F920FB60F9211248F939F939D
:1005800080916A0090916B00019690936B0080932C
:100590006A000EB406FE07C086B590E090936E0028
:1005A00080936D0009C00EB406FC06C086B597B5F1
:1005B0009093700080936F009EB580E489278EBD74
:1005C00095B384E0892785BB9F918F910F900FBED3
:1005D0000F901F901895CF93DF93C0E0D0E01BC021
:1005E000FE01EE0FFF1FEE0FFF1FEF58FF4F2081A0
:1005F000318180916C0090E02817390759F4FE0191
:10060000EE0FFF1FEE0FFF1FEF58FF4F0280F38129
:10061000E02D09952196C330D10514F380916C002B
:100620008F5F80936C00DF91CF9108951F920F929E
:100630000FB60F9211242F933F934F935F936F93B5
:100640007F938F939F93AF93BF93EF93FF930E94FA
:10065000EB02FF91EF91BF91AF919F918F917F91AD
:100660006F915F914F913F912F910F900FBE0F901F
:100670001F901895823031F485B5886685BD81B3A9
:10068000806881BB089595B5892B85BD089583BD8C
:10069000089597FB072E16F4009407D077FD09D034
:1006A0000E947F0307FC05D03EF4909581959F4FF3
:1006B0000895709561957F4F0895A1E21A2EAA1BA7
:1006C000BB1BFD010DC0AA1FBB1FEE1FFF1FA21702
:1006D000B307E407F50720F0A21BB30BE40BF50BFF
:1006E000661F771F881F991F1A9469F76095709588
:1006F000809590959B01AC01BD01CF010895AA1B87
:10070000BB1B51E107C0AA1FBB1FA617B70710F0FC
:10071000A61BB70B881F991F5A95A9F7809590952E
:0A072000BC01CD010895F894FFCF4D
:0A072A0000070006000004000500AF
:00000001FF
